:1000000079C088C087C086C085C084C083C082C0D4
:1000100081C080C07FC0A2C07DC07CC07BC07AC0D0
:1000200079C078C077C076C075C074C073C072C024
:1000300071C070C00000000000000000000000005F
:1000400000000000000000000000000000000000B0
:10005000000000003F3F3F3F3F3F3F3F3F3F3F3FAC
:100060003F3F3F3F3F3F3F3F3F3F3F3F3F3F3F3FA0
:100070003F3F3F3F000102030405060708090A0B42
:100080000C0D0E0F101112131415161718191A1B38
:100090001C1D1E1F202122232425262728292A2B28
:1000A0002C2D2E2F303132333435363738393A3B18
:1000B0003C3D3E3F1F1C191613100E0B090705038C
:1000C000020100000000000102030507090B0E10E9
:1000D0001316191C1F2326292C2F313436383A3C8D
:1000E0003D3E3F3F3F3F3F3E3D3C3A383634312F67
:1000F0002C29262311241FBECFEFD4E0DEBFCDBFB5
:1001000021E0A0E0B1E001C01D92AB30B207E1F701
:100110004BD08CC175CF809100019091010120914D
:10012000020130910301820F931F9093010180938C
:100130000001E0910001F0910101A0910401B0E003
:10014000AA0FBB1FAB5FBE4FEF2FFF27E695E695CB
:100150008D919C91E80FF91F849108951F920F9241
:100160000FB60F9211242F933F934F935F936F938A
:100170007F938F939F93AF93BF93EF93FF935E9A79
:10018000CADF88BD5E98FF91EF91BF91AF919F91BB
:100190008F917F916F915F914F913F912F910F9030
:1001A0000FBE0F901F90189584EB90E0909306017E
:1001B0008093050184E790E0909308018093070104
:1001C00084E390E090930A0180930901559A569A2E
:1001D00084B5836084BD85B5886085BD84B5806243
:1001E00084BD85B5816085BD80E487BDE1E8F0E030
:1001F000808188618083A0E8B0E08C9183608C93DB
:1002000080818260808382E080936F008EE390E043
:10021000909389008093880078940F2EF7E1CF2E79
:10022000F2E0DF2EF02D0F2EF9E5EF2EF2E0FF2E9B
:10023000F02D03EA12E0CBECD2E0A2E2B3E0E5E875
:10024000F3E063EF73E04FE254E00F2EF6E9AF2ED8
:10025000F5E0BF2EF02D0F2EF5E48F2EF6E09F2E49
:10026000F02D0F2EFAE06F2EF7E07F2EF02D0F2EDF
:10027000F6EE4F2EF7E05F2EF02D30900401339410
:1002800030920401309004010F2EF3E02F2EF02D58
:10029000321002C010920401D0920301C0920201F8
:1002A0002FEF84E39CE0215080409040E1F700C0B4
:1002B0000000F0920301E09202012FEF84E39CE042
:1002C000215080409040E1F700C0000010930301EE
:1002D000009302012FEF84E39CE021508040904086
:1002E000E1F700C00000D0930301C09302012FEF9B
:1002F00084E39CE0215080409040E1F700C0000082
:10030000B0930301A09302012FEF84E39CE02150FE
:1003100080409040E1F700C00000F0930301E093BB
:1003200002012FEF84E39CE0215080409040E1F7F0
:1003300000C0000070930301609302012FEF84E37B
:100340009CE0215080409040E1F700C000005093B5
:100350000301409302012FEF84E39CE02150804091
:100360009040E1F700C0000082EB94E0909303011D
:10037000809302019FEF24E38CE091502040804065
:10038000E1F700C0000086E495E0909303018093BC
:1003900002019FEF24E38CE0915020408040E1F780
:1003A00000C00000B0920301A09202019FEF24E37D
:1003B0008CE0915020408040E1F700C00000909216
:1003C0000301809202019FEF24E38CE091502040D2
:1003D0008040E1F700C000007092030160920201CA
:1003E0009FEF24E38CE0915020408040E1F700C073
:1003F000000050920301409202019FEF24E38CE041
:10040000915020408040E1F700C000008FE598E067
:1004100090930301809302019FEF24E38CE09150BD
:1004200020408040E1F700C0000027CFF894FFCFC4
:00000001FF
