S00B000050574D2E7372656325
S113000039C048C047C046C045C044C043C042C0D0
S113001041C040C03FC03EC03DC03CC03BC03AC0F0
S113002039C038C037C036C035C034C033C032C020
S113003031C030C0201C191613100E0B090705031C
S1130040020100000000000102030507090B0E1065
S11300501316191C202326292C2F313436383A3C08
S11300603D3E3F3F403F3F3E3D3C3A383634312FE2
S11300702C29262311241FBECFEFD4E0DEBFCDBF31
S113008021E0A0E0B1E001C01D92A530B207E1F784
S11300902CD09BC1B5CF20E030E040E857E432D10A
S11300A020E030E04AEF55E443D0AAD07093040135
S11300B060930301089580910101909102012091C0
S11300C0030130910401820F931F909302018093E6
S11300D00101E0910101F0910201EF2FFF27E69564
S11300E0E695EC5CFF4F84910895559A569A84B531
S11300F0836084BD85B5886085BD84B5806284BD18
S113010085B5816085BD80E487BDCFEF5E9A60E8E8
S113011078EF8BED93E4BFDFC0930001CCDF88BDA3
S11301205E9887EC90E00197F1F700C00000EECFF5
S11301300CD0AEC0A6D040F09DD030F021F45F3F8B
S113014019F08FC05111D8C092C0B3D098F399233D
S1130150C9F35523B1F3951B550BBB27AA27621787
S11301607307840738F09F5F5F4F220F331F441FCC
S1130170AA1FA9F333D00E2E3AF0E0E830D0915004
S11301805040E695001CCAF729D0FE2F27D0660FF1
S1130190771F881FBB1F261737074807AB07B0E830
S11301A009F0BB0B802DBF01FF2793585F4F2AF046
S11301B09E3F510568F055C09FC05F3FECF3983EE9
S11301C0DCF3869577956795B795F7959F5FC9F7A3
S11301D0880F911D9695879597F90895E1E0660F2C
S11301E0771F881FBB1F621773078407BA0720F0A5
S11301F0621B730B840BBA0BEE1F88F7E09508950E
S113020004D06894B11178C008955BD088F09F57EA
S113021090F0B92F9927B751A0F0D1F0660F771F4E
S1130220881F991F1AF0BA95C9F712C0B13081F02E
S113023062D0B1E008955FC0672F782F8827B85F38
S113024039F0B93FCCF3869577956795B395D9F78F
S11302503EF490958095709561957F4F8F4F9F4F99
S1130260089597F99F6780E870E060E008959FEF34
S113027080EC089500240A94161617061806090639
S1130280089500240A941216130614060506089508
S1130290092E0394000C11F4882352F0BB0F40F490
S11302A0BF2B11F460FF04C06F5F7F4F8F4F9F4FD0
S11302B0089557FD9058440F551F59F05F3F71F052
S11302C04795880F97FB991F61F09F3F79F08795B9
S11302D00895121613061406551FF2CF4695F1DF42
S11302E008C0161617061806991FF1CF86957105D2
S11302F0610508940895E894BB2766277727CB0106
S113030097F908950BD0C4CFB5DF28F0BADF18F001
S1130310952309F0A6CFABCF1124EECFCADFA0F30B
S1130320959FD1F3950F50E0551F629FF001729F86
S1130330BB27F00DB11D639FAA27F00DB11DAA1FA5
S1130340649F6627B00DA11D661F829F2227B00DF2
S1130350A11D621F739FB00DA11D621F839FA00D7D
S1130360611D221F749F3327A00D611D231F849FCD
S1130370600D211D822F762F6A2F11249F57504024
S11303808AF0E1F088234AF0EE0FFF1FBB1F661FBF
S1130390771F881F91505040A9F79E3F510570F078
S11303A060CFAACF5F3FECF3983EDCF38695779558
S11303B06795B795F795E7959F5FC1F7FE2B880F73
S11103C0911D9695879597F90895F894FFCFAF
S9030000FC
