S00B000050574D2E7372656325
S113000039C048C047C046C045C044C043C042C0D0
S113001041C040C03FC059C03DC03CC03BC03AC0D5
S113002039C038C037C036C035C034C033C032C020
S113003031C030C0201C191613100E0B090705031C
S1130040020100000000000102030507090B0E1065
S11300501316191C202326292C2F313436383A3C08
S11300603D3E3F3F403F3F3E3D3C3A383634312FE2
S11300702C29262311241FBECFEFD4E0DEBFCDBF31
S113008021E0A0E0B1E001C01D92A430B207E1F785
S113009042D06FC0B5CF80910001909101012091B1
S11300A0020130910301820F931F90930101809309
S11300B00001E0910001F0910101EF2FFF27E69587
S11300C0E695EC5CFF4F849108951F920F920FB652
S11300D00F9211242F933F934F935F936F937F93CA
S11300E08F939F93AF93BF93EF93FF935E9AD3DF66
S11300F088BD5E98FF91EF91BF91AF919F918F91D1
S11301007F916F915F914F913F912F910F900FBE0F
S11301100F901F901895559A569A84B5836084BDA4
S113012085B5886085BD84B5806284BD85B58160F0
S113013085BD80E487BDE1E8F0E08081886180834B
S1130140A0E8B0E08C9183608C938081826080838E
S113015082E080936F008EE390E090938900809317
S113016088008AE097E090930301809302017894D9
S1090170FFCFF894FFCF5D
S9030000FC
