:1000000019C02BC02AC029C028C027C026C025C0BF
:1000100024C023C022C021C020C01FC01EC01DC0DC
:100020001CC01BC01AC019C018C017C016C015C00C
:1000300014C013C011241FBECFEFD4E0DEBFCDBF6C
:1000400011E0A0E0B1E0E6E1F8E002C005900D9219
:10005000AE31B107D9F702D0DCC3D2CFCF93DF9353
:10006000CDB7DEB761970FB6F894DEBF0FBECDBF38
:100070008FEF85B914B8AED080E091E0F2D061E0A6
:1000800080E000D18CE091E0ECD02FEF83ED90E3A5
:10009000215080409040E1F700C0000092D00F2E28
:1000A000F7E1EF2EF1E0FF2EF02D8E010F5F1F4FD5
:1000B00083B11F928F93FF92EF921F930F93EAD019
:1000C000C7D080E091E0CDD061E080E0DBD0C80116
:1000D000C8D00F900F900F900F900F900F90E8CF17
:1000E000ECEBF0E080818823ECF78091B900887F09
:1000F0000895BF92CF92DF92EF92FF920F931F93DA
:10010000CF93DF93C82EB62ED42ECCEBD0E00F2E9B
:10011000F4EAFF2EF02D0BEB10E00F2EF4E8EF2E9B
:10012000F02DF882DDDF803121F08833D1F3883083
:10013000F1F4F801C082E882D3DF803291F3883392
:1001400081F38831A1F4F801B082E882C9DF8033FD
:1001500029F0883331F3883251F40BC084E980935D
:10016000BC00ECEBF0E0808184FDFDCF0CC080E0B2
:100170000DC0F801D082E882B3DF883231F08833D5
:1001800081F280E003C080E001C081E094E99093B7
:10019000BC00ECEBF0E0908194FDFDCFF0E1FA952E
:1001A000F1F700C0DF91CF911F910F91FF90EF9079
:1001B000DF90CF90BF900895482F60E08CE799DFE3
:1001C000089581E0F9DF83EF91E00197F1F700C036
:1001D000000008953B9A88E48093B8001092B9001B
:1001E0002FE986E891E0215080409040E1F700C07F
:1001F0000000439889EF90E00197F1F700C00000FC
:10020000439A83EC99E00197F1F700C000008FE07A
:1002100097E20197F1F700C0000088E3CDDF89E3A2
:10022000CBDF84E1C9DF88E7C7DF8FE5C5DF8CE678
:10023000C3DF9FE52AEE80E0915020408040E1F747
:1002400000C0000088E3B8DF8CE0B6DFBADF0895B5
:1002500082E0B2DF83EF91E00197F1F700C0000088
:100260000895CF93DF93FC014081442341F0EC01DA
:10027000219660E48CE73DDF49914111FACFDF918F
:10028000CF910895806490E8699FB0011124862B76
:1002900093DF0895AEE0B0E0EFE4F1E091C20D89A4
:1002A0001E8986E08C831A8309838FEF9FE79E83E4
:1002B0008D83AE01475E5F4F6F89788DCE010196C9
:1002C00008D0EF81F885E00FF11F10822E96E4E050
:1002D00093C2ACE0B0E0EEE6F1E064C27C016B01F9
:1002E0008A01FC0117821682838181FFB0C1CE0191
:1002F00001964C01F7019381F60193FD859193FFDF
:1003000081916F01882309F49EC1853239F493FDF0
:10031000859193FF81916F01853221F4B70190E0BF
:10032000B1D1E8CF512C312C20E02032A0F48B3217
:1003300069F030F4803259F0833269F420612CC0C6
:100340008D3239F0803339F4216026C02260246078
:1003500023C0286021C027FD27C030ED380F3A3078
:1003600078F426FF06C0FAE05F9E300D1124532E6C
:1003700013C08AE0389E300D1124332E20620CC049
:100380008E3221F426FD5FC1206406C08C3611F444
:10039000206802C0883641F4F60193FD859193FFF1
:1003A00081916F018111C1CF982F9F7D955493301A
:1003B00028F40C5F1F4FFFE3F9830DC0833631F043
:1003C000833771F0833509F057C021C0F80180816F
:1003D00089830E5F1F4F44244394512C540114C051
:1003E0003801F2E06F0E711CF801A080B18026FF89
:1003F00003C0652D70E002C06FEF7FEFC5012C8751
:1004000036D12C0183012C852F77222E16C038017E
:10041000F2E06F0E711CF801A080B18026FF03C0CE
:10042000652D70E002C06FEF7FEFC5012C8714D1FE
:100430002C012C852068222E830123FC19C0832DDA
:1004400090E048165906A0F4B70180E290E01AD176
:100450003A94F5CFF50127FC859127FE81915F0144
:10046000B70190E00FD131103A94F1E04F1A5108E2
:100470004114510479F7DEC0843611F0893631F524
:10048000F80127FF07C060817181828193810C5F31
:100490001F4F08C060817181882777FD8095982F54
:1004A0000E5F1F4F2F76B22E97FF09C09095809553
:1004B000709561957F4F8F4F9F4F2068B22E2AE035
:1004C00030E0A40111D1A82EA81843C0853729F423
:1004D0002F7EB22E2AE030E025C0F22FF97FBF2E0A
:1004E0008F36C1F018F4883579F0ADC0803719F037
:1004F000883721F0A8C02F2F2061B22EB4FE0DC086
:100500008B2D8460B82E09C024FF0AC09F2F9660EF
:10051000B92E06C028E030E005C020E130E002C07E
:1005200020E132E0F801B7FE07C06081718182816D
:1005300093810C5F1F4F06C06081718180E090E065
:100540000E5F1F4FA401D0D0A82EA818FB2DFF7757
:10055000BF2EB6FE0BC02B2D2E7FA51450F4B4FE7B
:100560000AC0B2FC08C02B2D2E7E05C07A2C2B2D84
:1005700003C07A2C01C0752C24FF0DC0FE01EA0DCA
:10058000F11D8081803311F4297E09C022FF06C04D
:100590007394739404C0822F867809F0739423FDBA
:1005A00012C020FF06C05A2C731418F4530C5718AD
:1005B000732C731460F4B70180E290E02C8762D052
:1005C00073942C85F6CF731410F4371801C0312CB6
:1005D00024FF11C0B70180E390E02C8753D02C8515
:1005E00022FF16C021FF03C088E590E002C088E723
:1005F00090E0B7010CC0822F867851F021FD02C037
:1006000080E201C08BE227FD8DE2B70190E03AD095
:10061000A51430F4B70180E390E034D05A94F8CFB9
:10062000AA94F401EA0DF11D8081B70190E02AD06F
:10063000A110F6CF332009F45DCEB70180E290E03F
:1006400021D03A94F7CFF7018681978102C08FEFCE
:100650009FEF2C96E2E1C2C0FC0105906150704012
:100660000110D8F7809590958E0F9F1F0895FC017B
:100670006150704001900110D8F7809590958E0FD1
:100680009F1F08950F931F93CF93DF93182F092F68
:10069000EB018B8181FD03C08FEF9FEF20C082FFB4
:1006A00010C04E815F812C813D81421753077CF43D
:1006B000E881F9819F012F5F3F4F398328831083A1
:1006C00006C0E885F985812F0995892B29F72E81A8
:1006D0003F812F5F3F4F3F832E83812F902FDF91EC
:1006E000CF911F910F910895FA01AA27283051F157
:1006F000203181F1E8946F936E7F6E5F7F4F8F4F53
:100700009F4FAF4FB1E03ED0B4E03CD0670F781FB1
:10071000891F9A1FA11D680F791F8A1F911DA11D96
:100720006A0F711D811D911DA11D20D009F46894CF
:100730003F912AE0269F11243019305D3193DEF677
:10074000CF010895462F4770405D4193B3E00FD02D
:10075000C9F7F6CF462F4F70405D4A3318F0495D18
:1007600031FD4052419302D0A9F7EACFB4E0A695FB
:100770009795879577956795BA95C9F7009761051D
:10078000710508959B01AC010A2E06945795479573
:1007900037952795BA95C9F7620F731F841F951F68
:1007A000A01D08952F923F924F925F926F927F9279
:1007B0008F929F92AF92BF92CF92DF92EF92FF9271
:1007C0000F931F93CF93DF93CDB7DEB7CA1BDB0B1D
:1007D0000FB6F894DEBF0FBECDBF09942A883988C2
:1007E00048885F846E847D848C849B84AA84B984C9
:1007F000C884DF80EE80FD800C811B81AA81B981D5
:10080000CE0FD11D0FB6F894DEBF0FBECDBFED01E8
:060810000895F894FFCFEB
:10081600444149534F207069616E6F003230313662
:0E0826002E30372E31320053573A20257800FD
:00000001FF
