S00D000055534152542E7372656388
S113000019C02BC02AC029C028C027C026C025C0BB
S113001024C023C022C021C020C01FC01EC01DC0D8
S11300201CC01BC01AC019C018C017C016C015C008
S113003014C013C011241FBECFEFD4E0DEBFCDBF68
S113004011E0A0E0B1E0E8E0F1E002C005900D921B
S1130050A632B107D9F726D055C0D2CFE0ECF0E0F4
S1130060908195FFFDCF8093C6000895E0ECF0E009
S113007080818823ECF78091C60008951F93CF9365
S1130080DF93EC018881882349F010E0E7DF1F5FEC
S1130090FE01E10FF11D80818111F8CFDF91CF9135
S11300A01F9108958FEF85B984B9E1ECF0E01082D7
S11300B01092C00086E08093C20083E390E09093A6
S11300C0C5008093C40088E180830CEC15E5DFEF64
S11300D0C0EF80E091E0D2DFC9DF823339F08333AF
S11300E049F0813359F4BADFC5B9F3CF82E3B6DFFF
S11300F005B9EFCF83E3B2DF15B9EBCF85E4AEDF0B
S10B0100D5B9E7CFF894FFCF55
S11301080A0D20506174313A3120506174323A3208
S113011820506174333A3320456E746572205061FF
S10901287423203A2000BC
S9030000FC
